:020000040000FA
:0600000049EF02F01200BE
:020006000000F8
:08000800D9CFE6FFE1CFD9FFDB
:10001000FE0EDB50836E829282908284040EE66E26
:10002000E66A3DD8E552E5528294E552E7CFD9FF22
:100030001200D9CFE6FFE1CFD9FFFE0EDB50836E71
:10004000828282908284040EE66EE66A28D8E552A7
:10005000E5528294E552E7CFD9FF1200D9CFE6FFEF
:10006000E1CFD9FFFD0EDBCFE9FFFE0EDBCFEAFFCC
:10007000EF50300810E0FD0EDBCFE9FFFE0EDBCFC6
:10008000EAFFEF50E66ED5DFE552FD0EDB2AFE0EED
:1000900001E3DB2AE7D7E552E7CFD9FF1200D9CF3A
:1000A000E6FFE1CFD9FF040EE126DE6ADD6ADECF8E
:1000B00014F0DDCF15F0FD0EDBCF16F0FE0EDBCF1A
:1000C00017F015501718E8AE02D0173404D01650A8
:1000D000145C175015581DE2020EDB6A030EDB6A32
:1000E000020EDBCF14F0030EDBCF15F0D8901550C5
:1000F00004E6640E145C000E155806E2020EDB2ABC
:10010000030E01E3DB2AECD7DF2A010E01E3DB2A31
:10011000CED7040EE15C02E2E16AE552E16EE552FF
:10012000E7CFD9FF1200946A956A380EE66E6CDF4D
:10013000E552010EE66E68DFE5520C0EE66E64DFF6
:10014000E552800EE66E60DFE5521200D9CFE6FF81
:10015000E1CFD9FF0C0EE126936ACDD8E4DF300E53
:10016000E66E67DFE5529BD8F3CFDEFFF4CFDDFF0D
:10017000020EDB6A030EDB6A020EDBCF14F0030E05
:10018000DBCF15F0D890155004E6040E145C000E79
:10019000155841E2DECF16F0DDCF17F00A0E0D6ED6
:1001A0000E6A16C008F017C009F081EC01F004C017
:1001B00016F005C017F0D950040F146EDACF15F001
:1001C000020E086E096ADBCF0DF0030EDBCF0EF0D6
:1001D000A7EC01F014500624E96E15500720EA6ED2
:1001E00016C0EEFF17C0EDFF0A0E146E156A14C09C
:1001F0000DF015C00EF0DECF08F0DDCF09F081EC78
:1002000001F008C0DEFF09C0DDFF020EDB2A030E8D
:1002100001E3DB2AB1D7C00EE66EF6DEE552030E2F
:10022000F36E020EF3CFDBFF030EDB6A020EDBCFB1
:1002300014F0030EDBCF15F00001800E151424E13D
:10024000D950040F166EDACF17F0020E086E096A45
:10025000DBCF0DF0030EDBCF0EF0A7EC01F0165054
:100260000624E96E17500720EA6EEECF14F0EFCFA8
:1002700015F0300E1424E66EDCDEE552020EDB06CD
:10028000030E01E2DB06D2D76ED70C0EE15C02E270
:10029000E16AE552E16EE552E7CFD9FF1200D9CF0E
:1002A000E6FFE1CFD9FF020EE126C282C2B2FED73D
:1002B000C450DE6EDD6ADECF14F0DDCF15F014C061
:1002C00015F0146A14C0DEFF15C0DDFFC350DF1245
:1002D000DECF14F0DDCF15F014C0F3FF15C0F4FF2E
:1002E000020EE15C03E200D0E16AE552E16EE55204
:1002F000E7CFD9FF1200110EC26EC16AA50EC06E03
:020300001200E9
:0E030200006A0EAE8AEF01F00D6C0E1EE86A66
:100310000E22001E09AE92EF01F0086C091EE86A79
:100320000922001E23EC02F009BEA2EF01F000AE8C
:10033000000C086C091EE86A0922046C051EE86AB4
:100340000522000C00BE99EF01F00188FF0C09C0E6
:1003500013F008C012F008500D02F4CF07F0F3CFED
:1003600006F009500E02F4CF09F0F3CF08F00D02A9
:10037000F3500726F4500822E86A092212500E02B0
:10038000F3500726F4500822E86A09220EAECDEF9A
:1003900001F01250085E1350095A13AE000C0D50B4
:0803A000085E0E50095A000C22
:0803A800060EF66E000EF76E62
:1003B000000EF86E00010900F550856F0900F55038
:1003C000866F03E1856701D03DD00900F550806F4D
:1003D0000900F550816F0900F550826F090009008E
:1003E000F550E96E0900F550EA6E090009000900B0
:1003F000F550836F0900F550846F09000900F6CFAE
:1004000087F0F7CF88F0F8CF89F080C0F6FF81C081
:10041000F7FF82C0F8FF0001835302E1845307E035
:100420000900F550EE6E8307F8E28407F9D787C01C
:10043000F6FF88C0F7FF89C0F8FF00018507000EAE
:06044000865BBFD712002D
:0A044600056A046A100EE76ED890F4
:1004500008360936043605360D50045C0E50055832
:1004600005E30D50045E0E50055A082AE72EF0D71A
:02047000120078
:0E047200000EF36E00EE00F0060E01D8120030
:10048000EA6002D0EE6AFCD7F350E9601200EE6A2F
:02049000FCD797
:0E04920015EE00F025EE00F0F86A019CD4ECA7
:0E04A00001F057EC02F0A6EC00F0FBD71200C2
:0204AE0012003A
:00000001FF
