:020000040000FA
:060000005EEF02F01200A9
:020006000000F8
:08000800946A956A380EE66E59
:100010000ED8E552010EE66E0AD8E5520C0EE66ED9
:1000200006D8E552800EE66E02D8E5521200D9CF0E
:10003000E6FFE1CFD9FFFE0EDB50836E8292829005
:100040008284040EE66EE66A3CD8E552E55282945C
:10005000E552E7CFD9FF1200D9CFE6FFE1CFD9FFB4
:10006000FE0EDB50836E828282908284040EE66EE6
:10007000E66A27D8E552E5528294E552E7CFD9FFE8
:100080001200D9CFE6FFE1CFD9FFFD0EDBCFE9FFAC
:10009000FE0EDBCFEAFFEF5010E0FD0EDBCFE9FFF5
:1000A000FE0EDBCFEAFFEF50E66ED6DFE552FD0E27
:1000B000DB2AFE0E01E3DB2AE8D7E552E7CFD9FFC2
:1000C0001200D9CFE6FFE1CFD9FF040EE126DE6AA8
:1000D000DD6ADECF00F0DDCF01F0FD0EDBCF02F0F8
:1000E000FE0EDBCF03F001500318E8AE02D003345C
:1000F00004D00250005C035001581DE2020EDB6A7E
:10010000030EDB6A020EDBCF00F0030EDBCF01F043
:10011000D890015004E6F20E005C010E015806E290
:10012000020EDB2A030E01E3DB2AECD7DF2A010EE5
:1001300001E3DB2ACED7040EE15C02E2E16AE5527C
:10014000E16EE552E7CFD9FF1200D9CFE6FFE1CF4C
:10015000D9FF0F0EE126D9CFE9FFDACFEAFF520E21
:10016000EE6E540EEE6E430EEE6E200EEE6E490EE7
:10017000EE6E6E0EEE6E740EEE6E650EEE6E720E1E
:10018000EE6E660EEE6E610EEE6E630EEE6E650E38
:10019000EE6EEE6AEE6A38DF1CD8D9CFE6FFDACF12
:1001A000E6FF6FDFE552E5521ED8C00EE66E3FDF78
:1001B000E552520EE66E50DFE55244D8FED70F0EE0
:1001C000E15C02E2E16AE552E16EE552E7CFD9FF78
:1001D000120094869488280EC66E800EC76E9D8687
:1001E000310EC86E120014D8D00EE66E1DD8E5523E
:1001F000E66A1AD8E552E66A17D8E552210EE66E8D
:1002000013D8E552020EE66E0FD8E5520EEF01F05C
:100210009E96C5809EA6FED79E9612009E96C58489
:100220009EA6FED79E961200D9CFE6FFE1CFD9FF5A
:10023000FE0EDB50C96E9EA6FED79E96E552E7CF16
:10024000D9FF1200E5DFD00EE66EEEDFE552E66A7A
:10025000EBDFE552E3DF02D890EF01F0D9DFD10EFA
:10026000E66EE2DFE5520001986B996B020E99AFE2
:1002700002D0D89003D0985D000E995922E2C5862D
:100280009EA6FED79E96C59AC5889EA6FED79E9628
:10029000C95000019A6F9B6B98C0E9FF99C0EAFFB3
:1002A000D890E936EA36800EE926000EEA229AC096
:1002B000EEFF9BC0EDFF9E96C596982B000E9923EE
:1002C000D5D7C5869EA6FED79E96C58AC5889EA60A
:1002D000FED79E96C95000019A6F9B6B98C0E9FFAC
:1002E00099C0EAFFD890E936EA36800EE926000E7A
:1002F000EA229AC0EEFF9BC0EDFFC5969E960EEFD8
:1003000001F0D9CFE6FFE1CFD9FFE6529EA6FED796
:100310009E96C950DF6EE552E552E7CFD9FF120035
:1003200080C09CF081C09DF082C09EF083C09FF091
:1003300084C0A0F085C0A1F0C00EE66E78DEE55264
:10034000F00E0001A015006E016A040ED890013273
:100350000032E804FBE1300E00240001906F0F0E24
:10036000A015006E016A300E0024916F3A0E926F54
:10037000F00E9E15006E016A040ED8900132003214
:10038000E804FBE1300E00240001936F0F0E9E1570
:10039000006E016A300E0024946F3A0E956FF00ED5
:1003A0009C15006E016A040ED89001320032E804F8
:1003B000FBE1300E00240001966F0F0E9C15006EBD
:1003C000016A300E0024976F986B996B080E99AFF5
:1003D00002D0D89003D0985D000E99590FE2900E8C
:1003E0009825E96E000E9921EA6EEF50E66E34DE34
:0E03F000E5520001982B000E9923E8D7120069
:0203FE00060EE9
:10040000F66E000EF76E000EF86E00010900F55052
:10041000A76F0900F550A86F03E1A76701D03DD091
:100420000900F550A26F0900F550A36F0900F550BF
:10043000A46F09000900F550E96E0900F550EA6E55
:10044000090009000900F550A56F0900F550A66FD5
:1004500009000900F6CFA9F0F7CFAAF0F8CFABF06A
:10046000A2C0F6FFA3C0F7FFA4C0F8FF0001A55388
:1004700002E1A65307E00900F550EE6EA507F8E289
:10048000A607F9D7A9C0F6FFAAC0F7FFABC0F8FFCF
:0C0490000001A707000EA85BBFD71200F8
:04049C00000EF36EED
:1004A00000EE00F0060E01D81200EA6002D0EE6AFB
:0C04B000FCD7F350E9601200EE6AFCD7A4
:0404BC0015EE00F049
:1004C00025EE00F0F86A059CFFEC01F06CEC02F000
:0804D000A5EC00F0FBD71200BF
:0204D800120010
:00000001FF
