:020000040000FA
:06000000FDEF00F012000C
:020006000000F8
:08000800946A956A380EE66E59
:1000100027D8E552010EE66E23D8E5520C0EE66EA7
:100020001FD8E552800EE66E1BD8E552530EE66EE1
:100030002CD8E5524E0EE66E28D8E552450EE66EF7
:1000400024D8E552480EE66E20D8E552410EE66E01
:100050001CD8E552770EE66E18D8E552FFD712008D
:10006000D9CFE6FFE1CFD9FFFE0EDB50836E82923F
:1000700082908284040EE66EE66A1CD8E552E55250
:100080008294E552E7CFD9FF1200D9CFE6FFE1CF46
:10009000D9FFFE0EDB50836E828282908284040E32
:1000A000E66EE66A07D8E552E5528294E552E7CF5C
:1000B000D9FF1200D9CFE6FFE1CFD9FF040EE12628
:1000C000DE6ADD6ADECF00F0DDCF01F0FD0EDBCFB2
:1000D00002F0FE0EDBCF03F001500318E8AE02D0B1
:1000E000033404D00250005C0350015805E2DF2ABB
:1000F000010E01E3DB2AE6D7020EDB6A030EDB6AA0
:10010000020EDBCF00F0030EDBCF01F0D8900150E0
:1001100004E6640E005C000E015806E2020EDB2AC3
:10012000030E01E3DB2AECD7040EE15C02E2E16A94
:0C013000E552E16EE552E7CFD9FF120066
:04013C00060EF66E47
:10014000000EF76E000EF86E00010900F550856F85
:100150000900F550866F03E1856701D03DD00900A5
:10016000F550806F0900F550816F0900F550826FDE
:1001700009000900F550E96E0900F550EA6E090022
:1001800009000900F550836F0900F550846F0900DC
:100190000900F6CF87F0F7CF88F0F8CF89F080C05C
:1001A000F6FF81C0F7FF82C0F8FF0001835302E130
:1001B000845307E00900F550EE6E8307F8E28407E8
:1001C000F9D787C0F6FF88C0F7FF89C0F8FF0001A4
:0A01D0008507000E865BBFD7120002
:0601DA00000EF36E00EEC2
:1001E00000F0060E01D81200EA6002D0EE6AFCD7D9
:0A01F000F350E9601200EE6AFCD73C
:0601FA0015EE00F025EEF9
:1002000000F0F86A059C9EEC00F00BEC01F004ECA9
:0602100000F0FBD7120014
:020216001200D4
:00000001FF
