:020000040000FA
:060000008DEF04F0120078
:020006000000F8
:08000800D9CFE6FFE1CFD9FFDB
:10001000FE0EDB50836E829282908284040EE66E26
:10002000E66A3DD8E552E5528294E552E7CFD9FF22
:100030001200D9CFE6FFE1CFD9FFFE0EDB50836E71
:10004000828282908284040EE66EE66A28D8E552A7
:10005000E5528294E552E7CFD9FF1200D9CFE6FFEF
:10006000E1CFD9FFFD0EDBCFE9FFFE0EDBCFEAFFCC
:10007000EF50300810E0FD0EDBCFE9FFFE0EDBCFC6
:10008000EAFFEF50E66ED5DFE552FD0EDB2AFE0EED
:1000900001E3DB2AE7D7E552E7CFD9FF1200D9CF3A
:1000A000E6FFE1CFD9FF040EE126DE6ADD6ADECF8E
:1000B00014F0DDCF15F0FD0EDBCF16F0FE0EDBCF1A
:1000C00017F015501718E8AE02D0173404D01650A8
:1000D000145C175015581DE2020EDB6A030EDB6A32
:1000E000020EDBCF14F0030EDBCF15F0D8901550C5
:1000F00004E6640E145C000E155806E2020EDB2ABC
:10010000030E01E3DB2AECD7DF2A010E01E3DB2A31
:10011000CED7040EE15C02E2E16AE552E16EE552FF
:10012000E7CFD9FF1200946A956A380EE66E6CDF4D
:10013000E552010EE66E68DFE5520C0EE66E64DFF6
:10014000E552800EE66E60DFE5521200D9CFE6FF81
:10015000E1CFD9FF100EE12671D9E5DF410EE66E41
:1001600068DFE5523FD9F3CFDEFFF4CFDDFF680E45
:10017000146EE80E156E9F0E166E3B0E176E000E77
:10018000DFCF08F0010EDBCF09F026EC02F007C04C
:1001900018F008C019F009C01AF00AC01BF018C006
:1001A0000CF019C00DF01AC00EF01BC00FF014C0F7
:1001B00007F015C008F016C009F017C00AF039ECB6
:1001C00002F00C0E07C0DBFF0D0E08C0DBFF0E0EA9
:1001D00009C0DBFF0F0E0AC0DBFF0C0EDBCF14F0F3
:1001E0000D0EDBCF15F00E0EDBCF16F00F0EDBCFB2
:1001F00017F00C6A0D6AC80E0E6E420E0F6E14C018
:1002000007F015C008F016C009F017C00AF039EC65
:1002100002F0080E07C0DBFF090E08C0DBFF0A0E64
:1002200009C0DBFF0B0E0AC0DBFF080EDBCF07F0B7
:10023000090EDBCF08F00A0EDBCF09F00B0EDBCF87
:100240000AF063EC03F0020E08C0DBFF030E09C0E6
:10025000DBFF800EE66ED8DEE552020EDBCF14F037
:10026000030EDBCF15F00A0E0D6E0E6A14C008F0F7
:1002700015C009F03DEC03F008C014F009C015F0FA
:10028000300E1424E66ED5DEE552020EDBCF14F0FC
:10029000030EDBCF15F00A0E0D6E0E6A14C008F0C7
:1002A00015C009F03DEC03F004C014F005C015F0D2
:1002B000300E1424E66EBDDEE5522E0EE66EB9DE7B
:1002C000E552080EDBCF18F0090EDBCF19F00A0E4D
:1002D000DBCF1AF00B0EDBCF1BF0020EDBCF08F0EA
:1002E000030EDBCF09F026EC02F007C01CF008C0BB
:1002F0001DF009C01EF00AC01FF01CC00CF01DC08C
:100300000DF01EC00EF01FC00FF018C007F019C08E
:1003100008F01AC009F01BC00AF0A6EC02F007C0F2
:1003200014F008C015F009C016F00AC017F00C6AE6
:100330000D6AC80E0E6E420E0F6E14C007F015C087
:1003400008F016C009F017C00AF039EC02F063ECAF
:1003500003F0040E08C0DBFF050E09C0DBFF040E2E
:10036000DBCF14F0050EDBCF15F00A0E0D6E0E6A12
:1003700014C008F015C009F03DEC03F008C014F0FB
:1003800009C015F0300E1424E66E53DEE552040E5B
:10039000DBCF14F0050EDBCF15F00A0E0D6E0E6AE2
:1003A00014C008F015C009F03DEC03F004C014F0CF
:1003B00005C015F0300E1424E66E3BDEE552DF0E6C
:1003C000E66E37DEE552430EE66E33DEE552CAD600
:1003D000100EE15C02E2E16AE552E16EE552E7CF20
:1003E000D9FF1200D9CFE6FFE1CFD9FF020EE126F7
:1003F000C282C2B2FED7C450DE6EDD6ADECF14F018
:10040000DDCF15F014C015F0146A14C0DEFF15C05E
:10041000DDFFC350DF12DECF14F0DDCF15F014C0C6
:10042000F3FF15C0F4FF020EE15C03E200D0E16AC5
:10043000E552E16EE552E7CFD9FF1200190EC26E08
:08044000C16AA50EC06E120096
:08044800019E08D0019E09AEDF
:1004500005D0086C091EE86A0922018E09C003F064
:1004600008C002F0136A126A8E0E046E056AAEEFBF
:1004700003F0016AEAEC03F002EC04F001B692EF3B
:1004800003F001A205D001B892EF03F099EF03F059
:1004900001AA05D001B092EF03F099EF03F001B08B
:1004A00002D001A802D0A5EF03F0056A0F500A247C
:1004B000046EE86A05227E0E045EE86A055A126A36
:1004C000136A026A036A0E500902F4CF03F0F3CFF5
:1004D00002F00D500902F3501326F4500222000ED0
:1004E00003220E500802F3501326F4500222000E8D
:1004F00003220C500902F3501226F4501322000E6E
:10050000022203220D500802F3501226F450132247
:10051000000E022203220E500702F3501226F4505E
:100520001322000E022203220C500802F45012265D
:10053000000E1322022203220D500702F45012264D
:10054000000E132202220322AEEF03F00F7E016A97
:10055000EAEC03F002EC04F001B692EF03F001A222
:100560000AD001AA03D001BE92EF03F001A49EEFCE
:1005700003F09BEF03F001AA05D001AC9EEF03F05E
:100580009BEF03F001A00AD001A808D001BE04D05F
:1005900001A402D0A7EF03F0ABEF03F0126A056AE3
:1005A0000F500A5C116E10E307C013F008C002F090
:1005B00009C003F00AC010F00CC007F00DC008F02D
:1005C0000EC009F0013A09D00CC013F00DC002F0C2
:1005D0000EC003F00FC010F0116C019E01BC018E23
:1005E00010C004F001B0DAEF03F01A0E1160DAEF78
:1005F00003F0046A0A6A01A408D0076C081E091EE9
:100600000A1EE86A082209220A2201AC08D0136CEB
:10061000021E031E041EE86A022203220422066A46
:10062000115207E00A340932083207320632112E1D
:10063000F9D70750132608500222095003220A5006
:10064000042206C012F0019E04AE0BD0126C131EE1
:10065000021E031E041EE86A132202220322042241
:10066000018E04A006D0D880033202321332123237
:10067000102A10C004F0AEEF03F0006A0EAE46EF91
:1006800003F00D6C0E1EE86A0E22001E09AE4EEF3E
:1006900003F0086C091EE86A0922001E67EC04F0EA
:1006A00009BE5EEF03F000AE000C086C091EE86A9C
:1006B0000922046C051EE86A0522000C00BE55EFF5
:1006C00003F00188FF0C016AEAEC03F001B66DEF5C
:1006D00003F001A20ED001B405D07F0E096EFF0E0B
:1006E000086E1FD0800E096E086A1BD0096A086A5E
:1006F00018D001B0FBD78F0E0A60EDD77E0E0A64CA
:10070000F5D78E0E0A5C05E0D890093208320A2A25
:10071000F8D701A406D0086C091EE86A092209AEC0
:10072000E5D712007F0E0A6EFF0E096E086E076E87
:1007300012007F0E01BEFF0E0A6E02D07F0E0A6EFF
:10074000800E096E086A076AF3D701AE04D0800EE6
:100750000A6E096AF7D70A6A096AF4D703500210C9
:1007600013101210F8E005BEF0D703BE0CD00450F1
:100770000510EBE0D8901236133602360336040625
:10078000D8A00506F2D70550D4E10428D2E012AE75
:1007900011D07F0E121402E113A00CD0132AE86AC4
:1007A0000222032207E3D880033202321332042AE2
:1007B0000428BFE00450C9E013C007F002C008F0ED
:1007C0000334096E04300A6E09320A9E01BE0A8E95
:1007D00098EF03F009360A3602E30184017E06E150
:1007E00001800A6A096A086A076A12000A2803E097
:1007F000D88009321200D890093202E10182120039
:10080000018612000E360F3602E3018C017E06E1EE
:1008100001880F6A0E6A0D6A0C6A12000F2803E045
:10082000D8800E321200D8900E32EAE1018A12000E
:10083000060EF66E000EF76E000EF86E000109004F
:10084000F550856F0900F550866F03E1856701D08B
:100850003DD00900F550806F0900F550816F090007
:10086000F550826F09000900F550E96E0900F55056
:10087000EA6E090009000900F550836F0900F55080
:10088000846F09000900F6CF87F0F7CF88F0F8CF22
:1008900089F080C0F6FF81C0F7FF82C0F8FF000139
:1008A000835302E1845307E00900F550EE6E83079D
:1008B000F8E28407F9D787C0F6FF88C0F7FF89C040
:0E08C000F8FF00018507000E865BBFD712000F
:0208CE00056AB9
:1008D000046A100EE76ED8900836093604360536DD
:1008E0000D50045C0E50055805E30D50045E0E508B
:0A08F000055A082AE72EF0D712007F
:0608FA00000EF36E00EE9B
:1009000000F0060E01D81200EA6002D0EE6AFCD7B1
:0A091000F350E9601200EE6AFCD714
:06091A0015EE00F025EED1
:1009200000F0F86A019C18EC04F09BEC04F0A6ECD3
:0609300000F0FBD71200ED
:020936001200AD
:00000001FF
