:030000000208876C
:0C088700787FE4F6D8FD758107020800B8
:0C089300534E4548410057414E56450069
:10080000758920758DFD759840D28E7BFF7A0879A9
:10081000931208747F0D12089F7BFF7A0879991252
:1008200008747F0D12089F7F0D12089F7FE87E03DA
:0508300012083580D61E
:10083500E4FDFCC3ED9FEE6480F8EC6480985015F0
:10084500E4FBFA0BBB00010AEB64644A70F50DBDCD
:0508550000010C80DE33
:01085A00227B
:08089F008F993099FDC29922E6
:1008740012085BFF600C12089F740129F9E43AFA2C
:0308840080EE22E1
:10085B00BB010689828A83E0225002E722BBFE029B
:09086B00E32289828A83E49322CE
:00000001FF
