:0300000002087B78
:0C087B00787FE4F6D8FD758107020800C4
:100800007F381208877F011208877F0C1208877FC4
:10081000801208877F681208917F651208917F6CAB
:100820001208917F6C1208917F301208917FC012DC
:1008300008877F771208917F6F1208917F721208E4
:0D084000917F6C1208917F6412089180FE78
:0A0887008FA0C29012084DC2922209
:0A0891008FA0D29012084DC29222EF
:08084D00C291D2927F047E00EB
:10085500E4FDFCC3ED9FEE6480F8EC6480985015D0
:10086500E4FBFA0BBB00010AEB64644A70F50DBDAD
:0508750000010C80DE13
:01087A00225B
:00000001FF
