:030000000208896A
:0C088900787FE4F6D8FD75810A02085162
:0608A90068656C6C6F0035
:100851007F381208957F011208957F0C1208957F49
:0F086100801208957BFF7A0879A912082E80FE75
:10082E008B088A09890AAB08AA09A90A120870FF5F
:10083E00601012089F7401250AF50AE43509F509BE
:03084E0080E42221
:0A0895008FA0C290120800C2922248
:0A089F008FA0D290120800C292222E
:08080000C291D2927F047E0038
:10080800E4FDFCC3ED9FEE6480F8EC64809850151D
:10081800E4FBFA0BBB00010AEB64644A70F50DBDFA
:0508280000010C80DE60
:01082D0022A8
:10087000BB010689828A83E0225002E722BBFE0286
:09088000E32289828A83E49322B9
:00000001FF
