:020000040000FA
:0600000082EF03F0120084
:0A0006000100220700008000000046
:0400100024000000C8
:0C001400D9CFE6FFE1CFD9FF120EE126A4
:10002000066A076A100E06C0DBFF110E07C0DBFF71
:100030000E0E06C0DBFF0F0E07C0DBFF0C0E06C066
:10004000DBFF0D0E07C0DBFF0A0E06C0DBFF0B0E49
:1000500007C0DBFF080E06C0DBFF090E07C0DBFF91
:10006000060E06C0DBFF070E07C0DBFF040E06C04E
:10007000DBFF050E07C0DBFF020E06C0DBFF030E31
:1000800007C0DBFF77DA020EDBCFE9FF030EDBCF21
:10009000EAFFD890E936EA36800EE926000EEA2219
:1000A000EECFE6FFEFCFE6FFA2C0E6FFA3C0E6FF7C
:1000B000AEDAE552E552E552E552040EDBCFE9FF38
:1000C000050EDBCFEAFFD890E936EA36800EE92646
:1000D000000EEA22EECFE6FFEFCFE6FFA0C0E6FF7C
:1000E000A1C0E6FF94DAE552E552E552E552060E6C
:1000F000DBCFE9FF070EDBCFEAFFD890E936EA361F
:10010000800EE926000EEA22EECFE6FFEFCFE6FFF3
:100110009EC0E6FF9FC0E6FF7ADAE552E552E5525F
:10012000E552080EDBCFE9FF090EDBCFEAFFD890DE
:10013000E936EA36800EE926000EEA22EECFE6FF27
:10014000EFCFE6FF9CC0E6FF9DC0E6FF60DAE55218
:10015000E552E552E5520A0EDBCFE9FF0B0EDBCF8D
:10016000EAFFD890E936EA36800EE926000EEA2248
:10017000EECFE6FFEFCFE6FF9AC0E6FF9BC0E6FFBB
:1001800046DAE552E552E552E5520C0EDBCFE9FFC7
:100190000D0EDBCFEAFFD890E936EA36800EE9266D
:1001A000000EEA22EECFE6FFEFCFE6FF98C0E6FFB3
:1001B00099C0E6FF2CDAE552E552E552E5520E0E03
:1001C000DBCFE9FF0F0EDBCFEAFFD890E936EA3646
:1001D000800EE926000EEA22EECFE6FFEFCFE6FF23
:1001E00096C0E6FF97C0E6FF12DAE552E552E55207
:1001F000E552100EDBCFE9FF110EDBCFEAFFD890FE
:10020000E936EA36800EE926000EEA22EECFE6FF56
:10021000EFCFE6FF94C0E6FF95C0E6FFF8D9E552C0
:10022000E552E552E552020EDB2A030E01E3DB2A1A
:10023000D950020FE96EDACFEAFF0A0EEE1801E19B
:10024000ED5009E1020EDB6A030EDB6A040EDB2AC5
:10025000050E01E3DB2AD950040FE96EDACFEAFF7D
:10026000EE50ED1010E1040EDB6A050EDB6AD9508A
:10027000020FE96EDACFEAFFEE6AED6A060EDB2ABC
:10028000070E01E3DB2AD950060FE96EDACFEAFF49
:100290000A0EEE1801E1ED5019E1066A076A060E32
:1002A00006C0DBFF070E07C0DBFF040E06C0DBFF46
:1002B000050E07C0DBFF020E06C0DBFF030E07C002
:1002C000DBFF080EDB2A090E01E3DB2AD950080FF9
:1002D000E96EDACFEAFF0A0EEE1801E1ED501FE1F8
:1002E000066A076A080E06C0DBFF090E07C0DBFFBF
:1002F000060E06C0DBFF070E07C0DBFF040E06C0BC
:10030000DBFF050E07C0DBFF020E06C0DBFF030E9E
:1003100007C0DBFF0A0EDB2A0B0E01E3DB2AD950F4
:100320000A0FE96EDACFEAFF0A0EEE1801E1ED508E
:1003300025E1066A076A0A0E06C0DBFF0B0E07C03E
:10034000DBFF080E06C0DBFF090E07C0DBFF060E51
:1003500006C0DBFF070E07C0DBFF040E06C0DBFF95
:10036000050E07C0DBFF020E06C0DBFF030E07C051
:10037000DBFF0C0EDB2A0D0E01E3DB2AD9500C0F3C
:10038000E96EDACFEAFF0A0EEE1801E1ED5025E141
:10039000066A076A0C0E06C0DBFF0D0E07C0DBFF06
:1003A000080E06C0DBFF090E07C0DBFF060E06C005
:1003B000DBFF070E07C0DBFF040E06C0DBFF050EE8
:1003C00007C0DBFF020E06C0DBFF030E07C0DBFF2A
:1003D0000E0EDB2A0F0E01E3DB2AD9500E0FE96E59
:1003E000DACFEAFF0A0EEE1801E1ED5031E1066ABC
:1003F000076A0E0E06C0DBFF0F0E07C0DBFF0C0EF8
:1004000006C0DBFF0D0E07C0DBFF0A0E06C0DBFFD8
:100410000B0E07C0DBFF080E06C0DBFF090E07C08E
:10042000DBFF060E06C0DBFF070E07C0DBFF040E76
:1004300006C0DBFF050E07C0DBFF020E06C0DBFFB8
:10044000030E07C0DBFF100EDB2A110E01E3DB2ACF
:10045000D9500E0FE96EDACFEAFF0A0EEE1801E16D
:10046000ED5032E1066A076A100E06C0DBFF110E7E
:1004700007C0DBFF0E0E06C0DBFF0F0E07C0DBFF61
:100480000C0E06C0DBFF0D0E07C0DBFF0A0E06C018
:10049000DBFF0B0E07C0DBFF080E06C0DBFF090EFB
:1004A00007C0DBFF060E06C0DBFF070E07C0DBFF41
:1004B000040E06C0DBFF050E07C0DBFF020E06C000
:1004C000DBFF030E07C0DBFFEA0EE66E010EE66EF1
:1004D0000DD8E552E552D7D5120EE15C02E2E16A91
:1004E000E552E16EE552E7CFD9FF1200D9CFE6FF22
:1004F000E1CFD9FF040EE126DE6ADD6ADECF0BF024
:10050000DDCF0CF0FD0EDBCF0DF0FE0EDBCF0EF0DD
:100510000C500E18E8AE02D00E3404D00D500B5C17
:100520000E500C581DE2020EDB6A030EDB6A020E4F
:10053000DBCF0BF0030EDBCF0CF0D8900C5004E6B1
:10054000F20E0B5C010E0C5806E2020EDB2A030EC3
:1005500001E3DB2AECD7DF2A010E01E3DB2ACED749
:10056000040EE15C02E2E16AE552E16EE552E7CF9A
:10057000D9FF1200929A9496949AC00EC76E200EDC
:10058000C66E070EE66EE66A0B0EE66EE66A3FD8AA
:10059000E552E552E552E552000EE66EE66A090EB6
:1005A000E66EE66A34D8E552E552E552E5520F0EA2
:1005B000E66EE66A0A0EE66EE66A29D8E552E5526C
:1005C000E552E552010EE66EE66A0C0EE66EE66A4C
:1005D0001ED8E552E552E552E552000EE66EE66A97
:1005E0000F0EE66EE66A13D8E552E552E552E55283
:1005F0001200D9CFE6FFE1CFD9FFFD0EDB50C96E67
:100600009EA6FED79E96E552E7CFD9FF1200D9CF1E
:10061000E6FFE1CFD9FF809AFD0EDBCFE6FFFE0EAD
:10062000DBCFE6FFE6DFE552E552FB0EDBCFE6FF70
:10063000FC0EDBCFE6FFDDDFE552E552808AE552B6
:06064000E7CFD9FF120014
:0A064600060EF66E000EF76E000EB1
:10065000F86E00010900F550A96F0900F550AA6F66
:1006600003E1A96701D03DD00900F550A46F09004E
:10067000F550A56F0900F550A66F09000900F55067
:10068000E96E0900F550EA6E090009000900F5500D
:10069000A76F0900F550A86F09000900F6CFABF06D
:1006A000F7CFACF0F8CFADF0A4C0F6FFA5C0F7FFD0
:1006B000A6C0F8FF0001A75302E1A85307E0090014
:1006C000F550EE6EA707F8E2A807F9D7ABC0F6FF22
:1006D000ACC0F7FFADC0F8FF0001A907000EAA5B90
:0406E000BFD712006E
:0C06E400000EF36E00EE00F0060E01D8D0
:1006F0001200EA6002D0EE6AFCD7F350E960120003
:04070000EE6AFCD7CA
:0C07040015EE00F025EE00F0F86A0A9CEB
:1007100023EC03F090EC03F00AEC00F0FBD712009E
:020720001200C5
:0E0722003F0006005B004F0066006D007D008A
:1007300007007F00640001000200030004000500C0
:060740000600070008009E
:00000001FF
