:020000040000FA
:10000000000000EB250000EB2C008FE2000C90E8D4
:1000100000A08AE000B08BE001704AE20B005AE1D8
:100020000000001A1D0000EB0F00BAE818E04FE2D4
:10003000010013E303F0471013FF2FE1CC01000090
:10004000DC0100000030B0E30040B0E30050B0E35A
:100050000060B0E3102052E27800A128FCFFFF8A84
:10006000822EB0E13000A128003081451EFF2FE133
:1000700001C08FE21CFF2FE11FB500F0B7F8059813
:1000800086460FBC009C02B07047000001C08FE2A2
:100090001CFF2FE130B47546AE4630BC70470000FF
:1000A0002A0000EB0210A0E1F0FFFFEB1CC09FE56F
:1000B0000FC08CE001001CE30DE08F120FE0A001E7
:1000C0001CFF2FE101C08FE21CFF2FE100F070F850
:1000D000500000007847C04603002DE9EAFFFFEB1F
:1000E0000300BDE83A0000EB0C009FE50C109FE513
:1000F00004209FE508309FE51EFF2FE160000040CF
:1001000060040040600000400217A0E32C209FE53F
:10011000041082E5080000EA0000A0E3040000EA01
:100120000118A0E3001381E114209FE5001082E58F
:10013000010080E2010B50E3F8FFFFBAF5FFFFEA90
:1001400000C002E000C006E0704770477047000042
:100150000E50A0E1180000EB05E0A0E10050B0E176
:100160000D10A0E10A30A0E10700C0E300D0A0E13B
:1001700060D08DE220402DE9DAFFFFEB2040BDE8A2
:100180000060A0E30070A0E30080A0E300B0A0E363
:100190000710C1E305C0A0E1C009ACE8C009ACE8A4
:1001A000C009ACE8C009ACE801D0A0E11EFF2FE116
:1001B0000400C046C0462000FFF78CFF00009FE50A
:1001C0001EFF2FE10000004000009FE51EFF2FE111
:1001D0000400004001C08FE21CFF2FE101491820FC
:1001E000ABDFFEE7260002001EFF2FE17847C04686
:1001F00010402DE9F3FFFFEB0010A0E3001080E5B5
:100200001040BDE81EFF2FE1180200000000004072
:08021000E804000044000000B6
:0400000500000000F7
:00000001FF
