:020000040000FA
:0600000061EF02F01200A6
:020006000000F8
:08000800946A956A380EE66E59
:100010000ED8E552010EE66E0AD8E5520C0EE66ED9
:1000200006D8E552800EE66E02D8E5521200D9CF0E
:10003000E6FFE1CFD9FFFE0EDB50836E8292829005
:100040008284040EE66EE66A3CD8E552E55282945C
:10005000E552E7CFD9FF1200D9CFE6FFE1CFD9FFB4
:10006000FE0EDB50836E828282908284040EE66EE6
:10007000E66A27D8E552E5528294E552E7CFD9FFE8
:100080001200D9CFE6FFE1CFD9FFFD0EDBCFE9FFAC
:10009000FE0EDBCFEAFFEF5010E0FD0EDBCFE9FFF5
:1000A000FE0EDBCFEAFFEF50E66ED6DFE552FD0E27
:1000B000DB2AFE0E01E3DB2AE8D7E552E7CFD9FFC2
:1000C0001200D9CFE6FFE1CFD9FF040EE126DE6AA8
:1000D000DD6ADECF00F0DDCF01F0FD0EDBCF02F0F8
:1000E000FE0EDBCF03F001500318E8AE02D003345C
:1000F00004D00250005C035001581DE2020EDB6A7E
:10010000030EDB6A020EDBCF00F0030EDBCF01F043
:10011000D890015004E6F20E005C010E015806E290
:10012000020EDB2A030E01E3DB2AECD7DF2A010EE5
:1001300001E3DB2ACED7040EE15C02E2E16AE5527C
:10014000E16EE552E7CFD9FF1200D9CFE6FFE1CF4C
:10015000D9FF4F0EE126D950080FE96EDACFEAFF3A
:10016000410EEE6E630EEE6EEE6E650EEE6E730E6B
:10017000EE6EEE6E200EEE6E470EEE6E720EEE6EB0
:10018000610EEE6E6E0EEE6E740EEE6E650EEE6E1F
:10019000640EEE6EEE6AD950170FE96EDACFEAFF01
:1001A000410EEE6E630EEE6EEE6E650EEE6E730E2B
:1001B000EE6EEE6E200EEE6E440EEE6E650EEE6E80
:1001C0006E0EEE6E690EEE6E650EEE6E640EEE6EE7
:1001D000EE6AEE6AD950260FE96EDACFEAFF530EC7
:1001E000EE6E630EEE6E610EEE6E6E0EEE6E200E15
:1001F000EE6E630EEE6E610EEE6E720EEE6E640EBD
:10020000EE6E3A0EEE6EEE6AEE6AEE6AEE6AEE6A36
:10021000D950350FE96EDACFEAFF300EEE6E390EA7
:10022000EE6E300EEE6EEE6E310EEE6E350EEE6E42
:10023000460EEE6EEE6E450EEE6EEE6E300EEE6E0D
:10024000440EEE6EEE6A936A966A846ADDDECBD85F
:10025000410EE66E01DFE552010EE66EE8DEE55284
:10026000800EE66EE4DEE552D950260FE66E000EF3
:10027000DA20E66E06DFE552E552846ADE6ADD6A60
:10028000DECF00F0DDCF01F0D890015004E60C0E77
:10029000005C000E015826E2AFD8E66ED950040F7C
:1002A000E96EDACFEAFFE552E750EE6EED6AD9501B
:1002B000420F006EDACF01F0DE500024E96EDD500F
:1002C0000120EA6E040EDBCFEFFFDBCFE6FF7DD827
:1002D000E552060EDB6A070EDB6ADF2A010E01E338
:1002E000DB2ACED7DE6ADD6ADECF00F0DDCF01F09B
:1002F000D890015004E60C0E005C000E015825E277
:10030000D950420F016EDACF02F0DE500124E96EBF
:10031000DD500220EA6EEFCF00F0D950350F036EAA
:10032000DACF04F0DE500324E96EDD500420EA6EDB
:10033000EF50005C05E1060EDB2A070E01E3DB2A25
:10034000DF2A010E01E3DB2ACFD7D950060FE96E71
:10035000DACFEAFF0C0EEE1801E1ED5016E1800E47
:10036000E66E65DEE552D950080FE66E000EDA2023
:10037000E66E87DEE552E552846A700EE66E170E71
:10038000E66E9FDEE552E55215D0800EE66E4FDE3A
:10039000E552D950170FE66E000EDA20E66E71DED8
:1003A000E552E5528468700EE66E170EE66E89DE41
:1003B000E552E55251D74F0EE15C02E2E16AE552A7
:1003C000E16EE552E7CFD9FF1200D9CFE6FFE1CFCA
:1003D000D9FFFE0EDB50AD6EACA2FED7AC92E5525B
:1003E000E7CFD9FF1200800E946E240EAC6E900EF3
:1003F000AB6E810EAF6E12009EAAFED79E9AAE50D3
:0404000000D0120016
:0C040400060EF66E000EF76E000EF86E8D
:1004100000010900F550856F0900F550866F03E172
:10042000856701D03DD00900F550806F0900F55077
:10043000816F0900F550826F09000900F550E96EDF
:100440000900F550EA6E090009000900F550836FB4
:100450000900F550846F09000900F6CF87F0F7CF47
:1004600088F0F8CF89F080C0F6FF81C0F7FF82C026
:10047000F8FF0001835302E1845307E00900F550BF
:10048000EE6E8307F8E28407F9D787C0F6FF88C0CD
:10049000F7FF89C0F8FF00018507000E865BBFD714
:0204A000120048
:0E04A200000EF36E00EE00F0060E01D8120000
:1004B000EA6002D0EE6AFCD7F350E9601200EE6AFF
:0204C000FCD767
:0E04C20015EE00F025EE00F0F86A069C02EC44
:0E04D00002F06FEC02F0A5EC00F0FBD712007A
:0204DE0012000A
:00000001FF
