:020000040000FA
:0600000018EF04F01200ED
:020006000000F8
:08000800D9CFE6FFE1CFD9FFDB
:10001000730EE126D9CFE9FFDACFEAFF530EEE6E79
:10002000630EEE6E610EEE6E6E0EEE6E200EEE6ED6
:10003000520EEE6E460EEE6E490EEE6E440EEE6EF3
:10004000EE6AEE6AEE6AEE6AEE6AEE6AEE6AD9501F
:10005000100FE96EDACFEAFF450EEE6E6E0EEE6E11
:10006000740EEE6E650EEE6E720EEE6E200EEE6E7D
:10007000500EEE6E610EEE6E730EEE6EEE6E770E3D
:10008000EE6E610EEE6E720EEE6E640EEE6EEE6A47
:10009000EE6AD950200FE96EDACFEAFF410EEE6E1C
:1000A000630EEE6EEE6E650EEE6E730EEE6EEE6E1F
:1000B000200EEE6E670EEE6E720EEE6E610EEE6E3E
:1000C0006E0EEE6E740EEE6E650EEE6E640EEE6EDD
:1000D000EE6AEE6AD950300FE96EDACFEAFF410ED0
:1000E000EE6E630EEE6EEE6E650EEE6E730EEE6EDF
:1000F000EE6E200EEE6E640EEE6E650EEE6E6E0E01
:10010000EE6E790EEE6E650EEE6E640EEE6EEE6ABB
:100110001E0EEE6EEE6ED950400FE96EDACFEAFF9A
:10012000570EEE6E720EEE6E6F0EEE6E6E0EEE6E81
:10013000670EEE6E200EEE6E520EEE6E460EEE6EF8
:10014000490EEE6E440EEE6EEE6AEE6AEE6AEE6AEE
:10015000EE6AEE6AD950500FE96EDACFEAFF530E1D
:10016000EE6E630EEE6E610EEE6E6E0EEE6E200E95
:10017000EE6E410EEE6E670EEE6E610EEE6E690E65
:10018000EE6E6E0EEE6EEE6AEE6AEE6AEE6AEE6A83
:10019000EE6A819049DA2DDA1E0E936EF19E0F0EF3
:1001A000C16E800EE66E57DAE552D9CFE6FFDACFA0
:1001B000E6FFBFDAE552E552710EDB6A720EDB6ACA
:1001C000710EDBCF00F0720EDBCF01F0D890015042
:1001D00004E60C0E005C000E01581FE220DAE76E08
:1001E0006C0EE7CFDBFFDBCFE6FF0CDAE552D95030
:1001F000600F006EDACF01F0710EDB500024E96E63
:10020000720EDB500120EA6E6C0EDBCFEFFF710E39
:10021000DB2A720E01E3DB2AD3D7600EDB503008F5
:1002200001E0BED1610EDB50390801E0B9D1620EA8
:10023000DB50300801E0B4D1630EDB50300801E040
:10024000AFD1640EDB50310801E0AAD1650EDB505E
:10025000350801E0A5D1660EDB50460801E0A0D1CB
:10026000670EDB50460801E09BD1680EDB50450865
:1002700001E096D1690EDB50450801E091D16A0E8C
:10028000DB50300801E08CD16B0EDB50440801E0FC
:1002900087D1010EE66EDFD9E552800EE66EDBD91E
:1002A000E552D950100FE66E000EDA20E66E41DA04
:1002B000E552E552C00EE66ECED9E552710EDB6A0C
:1002C000720EDB6A710EDBCF00F0720EDBCF01F035
:1002D000D890015004E6040E005C000E015801E3C2
:1002E0002AD1819A818E818C81B21ED0310EE66E28
:1002F000C7D9E552D9506D0F006EDACF01F0710EFB
:10030000DB500024E96E720EDB500120EA6E310EE4
:10031000EF6E710EDB2A720E01E3DB2AC80EE66E69
:10032000E66AC3D9E552E55281B41ED0320EE66EBC
:10033000A7D9E552D9506D0F006EDACF01F0710EDA
:10034000DB500024E96E720EDB500120EA6E320EA3
:10035000EF6E710EDB2A720E01E3DB2AC80EE66E29
:10036000E66AA3D9E552E55281B61ED0330EE66E99
:1003700087D9E552D9506D0F006EDACF01F0710EBA
:10038000DB500024E96E720EDB500120EA6E330E62
:10039000EF6E710EDB2A720E01E3DB2AC80EE66EE9
:1003A000E66A83D9E552E552819C818E818A81B2C9
:1003B0001ED0340EE66E64D9E552D9506D0F006E32
:1003C000DACF01F0710EDB500024E96E720EDB50C3
:1003D0000120EA6E340EEF6E710EDB2A720E01E31D
:1003E000DB2AC80EE66EE66A60D9E552E55281B4B2
:1003F0001ED0350EE66E44D9E552D9506D0F006E11
:10040000DACF01F0710EDB500024E96E720EDB5082
:100410000120EA6E350EEF6E710EDB2A720E01E3DB
:10042000DB2AC80EE66EE66A40D9E552E55281B68F
:100430001ED0360EE66E24D9E552D9506D0F006EEF
:10044000DACF01F0710EDB500024E96E720EDB5042
:100450000120EA6E360EEF6E710EDB2A720E01E39A
:10046000DB2AC80EE66EE66A20D9E552E552819E87
:10047000818C818A81B21ED0370EE66E01D9E55299
:10048000D9506D0F006EDACF01F0710EDB500024F1
:10049000E96E720EDB500120EA6E370EEF6E710EC0
:1004A000DB2A720E01E3DB2AC80EE66EE66AFDD88F
:1004B000E552E55281B41ED0380EE66EE1D8E55221
:1004C000D9506D0F006EDACF01F0710EDB500024B1
:1004D000E96E720EDB500120EA6E380EEF6E710E7F
:1004E000DB2A720E01E3DB2AC80EE66EE66ADDD86F
:1004F000E552E55281B61ED0390EE66EC1D8E552FE
:10050000D9506D0F006EDACF01F0710EDB50002470
:10051000E96E720EDB500120EA6E390EEF6E710E3D
:10052000DB2A720E01E3DB2AC80EE66EE66ABDD84E
:10053000E552E552C7D66D0EDB5032081FE16E0E54
:10054000DB5031081BE16F0EDB50340817E1700EF1
:10055000DB50330813E1010EE66E7DD8E552800EC4
:10056000E66E79D8E552D950200FE66E000EDA20FB
:10057000E66EDFD8E552E552818011D0010EE66EBD
:100580006AD8E552800EE66E66D8E552D950300F33
:10059000E66E000EDA20E66ECCD8E552E5521ED0AB
:1005A000010EE66E58D8E552800EE66E54D8E5523C
:1005B000D950400FE66E000EDA20E66EBAD8E5524A
:1005C000E552C00EE66E47D8E552D950500FE66EA0
:1005D000000EDA20E66EADD8E552E552EDD5730E89
:1005E000E15C02E2E16AE552E16EE552E7CFD9FF54
:1005F0001200800E946E240EAC6E900EAB6E810EC7
:10060000AF6E1200D9CFE6FFE1CFD9FFFE0EDB506F
:10061000AD6EACA2FED7E552E7CFD9FF12009EAA7D
:10062000FED7AE5000D01200946A956A300EE66E86
:1006300012D8E552380EE66E0ED8E552010EE66E7F
:100640000AD8E552800EE66E06D8E5520C0EE66E2C
:1006500002D8E5521200D9CFE6FFE1CFD9FFFE0E56
:10066000DB50836E8292829082840A0EE66EE66A86
:100670001CD8E552E5528294E552E7CFD9FF12002B
:10068000D9CFE6FFE1CFD9FFFE0EDB50836E828229
:10069000829082840A0EE66EE66A07D8E552E55239
:1006A0008294E552E7CFD9FF1200D9CFE6FFE1CF20
:1006B000D9FF040EE126DE6ADD6ADECF00F0DDCF71
:1006C00001F0FD0EDBCF02F0FE0EDBCF03F0015098
:1006D0000318E8AE02D0033404D00250005C03508B
:1006E00001581DE2020EDB6A030EDB6A020EDBCF4D
:1006F00000F0030EDBCF01F0D890015004E6F40EB9
:10070000005C010E015806E2020EDB2A030E01E333
:10071000DB2AECD7DF2A010E01E3DB2ACED7040E59
:10072000E15C02E2E16AE552E16EE552E7CFD9FF12
:100730001200D9CFE6FFE1CFD9FFFD0EDBCFE9FFF5
:10074000FE0EDBCFEAFFEF5010E0FD0EDBCFE9FF3E
:10075000FE0EDBCFEAFFEF50E66E92DFE552FD0EB4
:10076000DB2AFE0E01E3DB2AE8D7E552E7CFD9FF0B
:02077000120075
:0E077200060EF66E000EF76E000EF86E000119
:100780000900F550856F0900F550866F03E1856714
:1007900001D03DD00900F550806F0900F550816F00
:1007A0000900F550826F09000900F550E96E090053
:1007B000F550EA6E090009000900F550836F090041
:1007C000F550846F09000900F6CF87F0F7CF88F065
:1007D000F8CF89F080C0F6FF81C0F7FF82C0F8FF34
:1007E0000001835302E1845307E00900F550EE6EE7
:1007F0008307F8E28407F9D787C0F6FF88C0F7FFC0
:1008000089C0F8FF00018507000E865BBFD7120084
:10081000000EF36E00EE00F0060E01D81200EA6042
:1008200002D0EE6AFCD7F350E9601200EE6AFCD702
:1008300015EE00F025EE00F0F86A059CB9EC03F027
:0C08400026EC04F004EC00F0FBD71200E2
:02084C00120098
:00000001FF
