:020000040000FA
:06000000D6EF00F0120033
:020006000000F8
:08000800D9CFE6FFE1CFD9FFDB
:10001000E6520CD814D8DF6EDFCFE6FF16D8E552D3
:10002000F9D7E552E552E7CFD9FF1200800E946E62
:10003000240EAC6E900EAB6E810EAF6E12009EAAB7
:10004000FED79E9AAE5000D01200D9CFE6FFE1CF86
:10005000D9FFFE0EDB50AD6EACA2FED7AC92E552DE
:10006000E7CFD9FF1200D9CFE6FFE1CFD9FF040EC9
:10007000E126DE6ADD6ADECF00F0DDCF01F0FD0EA5
:10008000DBCF02F0FE0EDBCF03F001500318E8AE29
:1000900002D0033404D00250005C035001581DE22A
:1000A000020EDB6A030EDB6A020EDBCF00F0030EEA
:1000B000DBCF01F0D890015004E6F20E005C010E97
:1000C000015806E2020EDB2A030E01E3DB2AECD71D
:1000D000DF2A010E01E3DB2ACED7040EE15C02E247
:0E00E000E16AE552E16EE552E7CFD9FF12006A
:0200EE00060EFC
:1000F000F66E000EF76E000EF86E00010900F55066
:10010000856F0900F550866F03E1856701D03DD00A
:100110000900F550806F0900F550816F0900F55016
:10012000826F09000900F550E96E0900F550EA6E8A
:10013000090009000900F550836F0900F550846F2C
:1001400009000900F6CF87F0F7CF88F0F8CF89F0E3
:1001500080C0F6FF81C0F7FF82C0F8FF0001835323
:1001600002E1845307E00900F550EE6E8307F8E2E0
:100170008407F9D787C0F6FF88C0F7FF89C0F8FF6A
:0C01800000018507000E865BBFD712004F
:04018C00000EF36E00
:1001900000EE00F0060E01D81200EA6002D0EE6A0E
:0C01A000FCD7F350E9601200EE6AFCD7B7
:0401AC0015EE00F05C
:1001B00025EE00F0F86A059C77EC00F0E4EC00F026
:0801C00004EC00F0FBD7120073
:0201C800120023
:00000001FF
