:020000040000FA
:0600000074EF00F0120095
:020006000000F8
:08000800060EF66E000EF76E05
:10001000000EF86E00010900F550856F0900F550DB
:10002000866F03E1856701D03DD00900F550806FF0
:100030000900F550816F0900F550826F0900090031
:10004000F550E96E0900F550EA6E09000900090053
:10005000F550836F0900F550846F09000900F6CF51
:1000600087F0F7CF88F0F8CF89F080C0F6FF81C025
:10007000F7FF82C0F8FF0001835302E1845307E0D9
:100080000900F550EE6E8307F8E28407F9D787C0C0
:10009000F6FF88C0F7FF89C0F8FF00018507000E52
:0600A000865BBFD71200D1
:0A00A600936A09D802D8FED71200B1
:1000B000C282C2B2FED7C350816E1200110EC26E50
:0800C000C16AA50EC06E12001A
:0800C800000EF36E00EE00F0E3
:1000D000060E01D81200EA6002D0EE6AFCD7F35097
:0800E000E9601200EE6AFCD792
:0800E80015EE00F025EE00F01A
:1000F000F86A019C04EC00F082EC00F053EC00F094
:04010000FBD7120017
:020104001200E7
:00000001FF
