:020000040000FA
:06000000B8EF02F012004F
:020006000000F8
:08000800946A956A380EE66E59
:100010000ED8E552010EE66E0AD8E5520C0EE66ED9
:1000200006D8E552800EE66E02D8E5521200D9CF0E
:10003000E6FFE1CFD9FFFE0EDB50836E8292829005
:100040008284040EE66EE66A1CD8E552E55282947C
:10005000E552E7CFD9FF1200D9CFE6FFE1CFD9FFB4
:10006000FE0EDB50836E828282908284040EE66EE6
:10007000E66A07D8E552E5528294E552E7CFD9FF08
:100080001200D9CFE6FFE1CFD9FF040EE126DE6AE8
:10009000DD6ADECF14F0DDCF15F0FD0EDBCF16F0FC
:1000A000FE0EDBCF17F015501718E8AE02D017344C
:1000B00004D01650145C175015581DE2020EDB6A6E
:1000C000030EDB6A020EDBCF14F0030EDBCF15F05C
:1000D000D890155004E6640E145C000E155806E224
:1000E000020EDB2A030E01E3DB2AECD7DF2A010E26
:1000F00001E3DB2ACED7040EE15C02E2E16AE552BD
:10010000E16EE552E7CFD9FF1200D9CFE6FFE1CF8C
:10011000D9FF0C0EE12660D977DF110EC26E30D9FF
:10012000F3CFDEFFF4CFDDFF020EDB6A030EDB6AE6
:10013000020EDBCF14F0030EDBCF15F0D890155074
:1001400004E6040E145C000E155841E2DECF16F0F2
:10015000DDCF17F00A0E0D6E0E6A16C008F017C03C
:1001600009F0F0EC01F004C016F005C017F0D9500A
:10017000040F146EDACF15F0020E086E096ADBCF99
:100180000DF0030EDBCF0EF016EC02F01450062437
:10019000E96E15500720EA6E16C0EEFF17C0EDFF9E
:1001A0000A0E146E156A14C00DF015C00EF0DECFE5
:1001B00008F0DDCF09F0F0EC01F008C0DEFF09C067
:1001C000DDFF020EDB2A030E01E3DB2AB1D7800E2E
:1001D000E66E2DDFE552030EF36E020EF3CFDBFF6A
:1001E000030EDB6A020EDBCF14F0030EDBCF15F03B
:1001F0000001800E151424E1D950040F166EDACFD9
:1002000017F0020E086E096ADBCF0DF0030EDBCF8C
:100210000EF016EC02F016500624E96E1750072077
:10022000EA6EEECF14F0EFCF15F0300E1424E66E28
:1002300013DFE552020EDB06030E01E2DB06D2D726
:10024000190EC26E9DD8F3CFDEFFF4CFDDFF020E94
:10025000DB6A030EDB6A020EDBCF14F0030EDBCF8A
:1002600015F0D890155004E6040E145C000E1558D5
:1002700041E2DECF16F0DDCF17F00A0E0D6E0E6AEA
:1002800016C008F017C009F0F0EC01F004C016F039
:1002900005C017F0D950040F146EDACF15F0020E16
:1002A000086E096ADBCF0DF0030EDBCF0EF016EC03
:1002B00002F014500624E96E15500720EA6E16C0AD
:1002C000EEFF17C0EDFF0A0E146E156A14C00DF094
:1002D00015C00EF0DECF08F0DDCF09F0F0EC01F034
:1002E00008C0DEFF09C0DDFF020EDB2A030E01E3BA
:1002F000DB2AB1D7C00EE66E9ADEE552030EF36E2E
:10030000020EF3CFDBFF030EDB6A020EDBCF14F02D
:10031000030EDBCF15F00001800E151424E1D95037
:10032000040F166EDACF17F0020E086E096ADBCFE3
:100330000DF0030EDBCF0EF016EC02F01650062483
:10034000E96E17500720EA6EEECF14F0EFCF15F0EC
:10035000300E1424E66E80DEE552020EDB06030E3C
:1003600001E2DB06D2D7190EC26ED7D60C0EE15CC5
:1003700002E2E16AE552E16EE552E7CFD9FF1200F1
:10038000D9CFE6FFE1CFD9FF020EE126C282C2B289
:10039000FED7C450DE6EDD6ADECF14F0DDCF15F07F
:1003A00014C015F0146A14C0DEFF15C0DDFFC35081
:1003B000DF12DECF14F0DDCF15F014C0F3FF15C04F
:1003C000F4FF020EE15C03E200D0E16AE552E16E67
:1003D000E552E7CFD9FF1200C16AA50EC06E120028
:1003E000006A0EAEF9EF01F00D6C0E1EE86A0E22E7
:1003F000001E09AE01EF02F0086C091EE86A09222E
:10040000001E92EC02F009BE11EF02F000AE000CEB
:10041000086C091EE86A0922046C051EE86A0522B8
:10042000000C00BE08EF02F00188FF0C09C013F0B9
:1004300008C012F008500D02F4CF07F0F3CF06F019
:1004400009500E02F4CF09F0F3CF08F00D02F3507B
:100450000726F4500822E86A092212500E02F350CF
:100460000726F4500822E86A09220EAE3CEF02F09B
:100470001250085E1350095A13AE000C0D50085E5E
:060480000E50095A000CA9
:0A048600060EF66E000EF76E000E73
:10049000F86E00010900F550856F0900F550866F70
:1004A00003E1856701D03DD00900F550806F090058
:1004B000F550816F0900F550826F09000900F55071
:1004C000E96E0900F550EA6E090009000900F550CF
:1004D000836F0900F550846F09000900F6CF87F09B
:1004E000F7CF88F0F8CF89F080C0F6FF81C0F7FF22
:1004F00082C0F8FF0001835302E1845307E0090042
:10050000F550EE6E8307F8E28407F9D787C0F6FF4F
:1005100088C0F7FF89C0F8FF00018507000E865BE1
:04052000BFD712002F
:0C052400056A046A100EE76ED8900836D5
:100530000936043605360D50045C0E50055805E3A7
:100540000D50045E0E50055A082AE72EF0D712000F
:10055000000EF36E00EE00F0060E01D81200EA6005
:1005600002D0EE6AFCD7F350E9601200EE6AFCD7C5
:1005700015EE00F025EE00F0F86A019C43EC02F065
:0C058000C6EC02F085EC00F0FBD7120086
:02058C0012005B
:00000001FF
