:020000040000FA
:06000000F6EF00F0120013
:0A00060001000A0200008000000063
:0400100014000000D8
:0C001400D9CFE6FFE1CFD9FF020EE126B4
:10002000956A926ADE6ADD6ADECF00F0DDCF01F00C
:10003000D890015004E6040E005C000E015828E23E
:10004000DECFE9FFDDCFEAFF030ED880E956000ED0
:10005000EA568A0EE926000EEA22EF50806EDECFC5
:10006000E9FFDDCFEAFF010EE926000EEA22800E4D
:10007000E926000EEA22EF50836E040EE66EE66A71
:1000800012D8E552E552DF2A010E01E3DB2ACCD774
:10009000C9D7020EE15C02E2E16AE552E16EE55287
:1000A000E7CFD9FF1200D9CFE6FFE1CFD9FF040E89
:1000B000E126DE6ADD6ADECF00F0DDCF01F0FD0E65
:1000C000DBCF02F0FE0EDBCF03F001500318E8AEE9
:1000D00002D0033404D00250005C0350015805E202
:1000E000DF2A010E01E3DB2AE6D7020EDB6A030EEC
:1000F000DB6A020EDBCF00F0030EDBCF01F0D890FD
:10010000015004E6F20E005C010E015806E2020EF8
:10011000DB2A030E01E3DB2AECD7040EE15C02E2EA
:0E012000E16AE552E16EE552E7CFD9FF120029
:02012E00060EBB
:10013000F66E000EF76E000EF86E00010900F55025
:10014000996F0900F5509A6F03E1996701D03DD08E
:100150000900F550946F0900F550956F0900F550AE
:10016000966F09000900F550E96E0900F550EA6E36
:10017000090009000900F550976F0900F550986FC4
:1001800009000900F6CF9BF0F7CF9CF0F8CF9DF067
:1001900094C0F6FF95C0F7FF96C0F8FF0001975393
:1001A00002E1985307E00900F550EE6E9707F8E278
:1001B0009807F9D79BC0F6FF9CC0F7FF9DC0F8FFDA
:0C01C00000019907000E9A5BBFD71200E7
:0401CC00000EF36EC0
:1001D00000EE00F0060E01D81200EA6002D0EE6ACE
:0C01E000FCD7F350E9601200EE6AFCD777
:0401EC0015EE00F01C
:1001F00025EE00F0F86A059C97EC00F004EC01F0A5
:080200000AEC00F0FBD712002C
:020208001200E2
:06020A00E721CB6B2D6E15
:0E021000E623FF7F080402010000000000004A
:00000001FF
