:030000000208648F
:0C086400787FE4F6D8FD758107020800DB
:100800007F381208707F011208707F0C1208707F09
:1008100080120870C2A0D2A3D2A2D2A120A4057FC8
:100820003012087AC2A3D2A2D2A1D2A020A5E57F1D
:060830003112087A80DE9F
:0A0870008FB0C290120836C2922227
:0A087A008FB0D290120836C292220D
:08083600C291D2927F047E0002
:10083E00E4FDFCC3ED9FEE6480F8EC6480985015E7
:10084E00E4FBFA0BBB00010AEB64644A70F50DBDC4
:05085E0000010C80DE2A
:010863002272
:00000001FF
